:020000041000EA
:1000000000B5324B212058609868022188439860DF
:10001000D860186158612E4B002199600221596106
:100020000121F02299502B49196001219960352056
:1000300000F044F80222904214D00621196600F024
:1000400034F8196E01211966002018661A6600F04E
:100050002CF8196E196E196E052000F02FF8012189
:100060000842F9D1002199601B49196000215960AB
:100070001A491B48016001219960EB211966A021F2
:10008000196600F012F800219960164914480160C1
:100090000121996001BC002800D000471248134993
:1000A000086003C880F30888084703B5996A0420EC
:1000B0000142FBD001200142F8D103BD02B5186610
:1000C0001866FFF7F2FF186E186E02BD00000240BE
:1000D000000000180000070000035F00212200005C
:1000E000F4000018222000A00001001008ED00E03C
:1000F00000000000000000000000000074B24E7A12
:1001000000200420F7010010C3010010C5010010F9
:10011000C1010010C1010010C1010010C101001097
:10012000C1010010C1010010C1010010C701001081
:10013000C1010010C1010010C9010010CB01001065
:10014000CD010010CD010010CD010010CD01001037
:10015000CD010010CD010010CD010010CD01001027
:10016000CD010010CD010010CD010010CD01001017
:10017000CD010010CD010010CD010010CD01001007
:10018000CD010010CD010010CD010010CD010010F7
:10019000CD010010CD010010CD010010CD010010E7
:1001A000CD010010CD010010CD010010CD010010D7
:1001B000CD010010CD010010CD010010CD010010C7
:1001C00000BE00BE00BE00BE00BE00BEEFF3058054
:1001D000103800BEF2EB8871245900104859001005
:1001E0003402001090A31AE700201F49086006C8D7
:1001F00081F3088810471D48006800282FD10DA4FE
:100200000ECC002902D000F012F8F9E71849194A7B
:10021000002000E001C19142FCD1174988471749ED
:1002200088471749884700BEFDE701C901C29A42C5
:10023000FBD3704748590010C000002094020020F2
:100240001C5B001000000420000004201C5B001058
:10025000001004200010042000000000704709482E
:1002600002F054FF0047000008ED00E0000000D05D
:100270009802002060380220011A0010B903001013
:10028000F51A00105756000006005250ABB36053E9
:100290009858001006005250861C0302A8580010FF
:1002A000060052505422A29DB05800100500525032
:1002B000DE65F4681C5B0010F8B5C0460448054BC9
:1002C00010B5834203D0044B002B00D0984710BDDB
:1002D0009402002094020020000000000648074914
:1002E000091A8B10C90FC91810B5491003D0044B57
:1002F000002B00D0984710BD9402002094020020EB
:100300000000000010B5074C2378002B09D1FFF73F
:10031000D5FF054B002B02D0044800E000BF0123AD
:10032000237010BD9804002000000000A8550010A4
:10033000054B10B5002B03D00449054800E000BF71
:10034000FFF7CCFF10BDC046000000009C04002059
:10035000A85500100A4B0B4A30B50B49DC68D86829
:1003600013688B4206DC094D59004C53084C01338D
:10037000085313608022074BD2031A6030BDC04679
:1003800000C004401C340020B70B0000241C0020D7
:10039000B404002080E200E010B504001F2100F04A
:1003A0009DF800222000002100F0B0F8002120007C
:1003B00000F0C4F810BDC046F8B5CE46474680B53B
:1003C00003F0E0FC334803F02FFC05F081F81A201D
:1003D000FFF7E2FF1B20FFF7DFFFE0222E4CD201E8
:1003E0002368162013402D4A2D4F1360C023216827
:1003F0009B024B40F82149030B401360294B2A49CB
:1004000023612A4B1A682A4B53402A4A13402A4A2E
:10041000136000F005F901230822A361274B012195
:100420001A60162000F0E2F8254B98461B68BB4284
:1004300000DCFEE7234B244E9946244BF51834008C
:100440003300002000215A5E023380189D42F9D10A
:100450001F4902F08DFE020000200021635E02347D
:100460009B1A5B43C018AC42F7D1194902F080FED9
:1004700003F072F903F0BCF903F0B2F903F028FAC3
:1004800002000B00484603F071FC43461B68BB4268
:10049000D5DCCEE7A855001000C0044000D00440D1
:1004A000B70B0000003F1F005503001008C00440B8
:1004B000010000020F00000F08D0044000E00440DB
:1004C0001C340020C0550010241C002070170000B0
:1004D000B80B00007047C0467047C046094A830009
:1004E00094464022634410B51C68C0006240C0249A
:1004F00014408022520113431C60034B9C4660440D
:10050000416010BD04C00140004001400A4B800022
:100510009C4604236044002901D00C230821002AB2
:1005200000D10B00026853400C221A4080235B016B
:10053000184302607047C04604C00140084B800069
:100540009C466044002905D080239B01184340232A
:1005500003607047C0239B01184340230360F8E702
:1005600004C00140024B18688007C00F7047C046A6
:1005700000C0064070B5EFF3108C72B60D4D2B68BD
:10058000002BFCD0BFF35F8F0724CB08C618C05CDC
:1005900001230C40A3401C000440034207D1034345
:1005A0003370BFF35F8F2C608CF3108870BD100028
:1005B00001F0A4FA2C0100D00021044B044ABFF33F
:1005C0005F8F02C39342FAD17047C046000100D04A
:1005D000800100D0044A1078431CDBB2172B00D9ED
:1005E000102313707047C046B001002001238340E0
:1005F000002904D0034A1360034A13607047034A7A
:100600001360FBE780E200E000E100E080E100E051
:10061000024B10309B688000C058704700ED00E02E
:1006200070B50D00EFF3108672B60F4A1368002BF9
:10063000FCD0BFF35F8F0D4B10309B6884001B59BB
:100640000B4A934203D09D4201D001F06FFA074B51
:100650009B681D51BFF35F8FBFF35F8F0022024B7A
:100660001A6086F3108870BD240100D000ED00E010
:10067000CD010010F0B5DE4657464E464546E0B582
:100680000C0083B0EFF3108972B6584A1368002B40
:10069000FCD0BFF35F8F564B9A68030010339F0066
:1006A000D559544A9046954232D0A54243D0524E35
:1006B000AA1B2F2A2CD801228240924651464F4A2B
:1006C00012681140019151464D4A1160BFF35F8F8E
:1006D000EFF305829346002A33D101232A009A437F
:1006E00093689C4208D177E04B005B189B00F3189D
:1006F0009968A1422AD01A00062151560029F3DA3E
:10070000019B002B19D052463E4B1A603B4B1A609E
:10071000374B9B68DD51BFF35F8FBFF35F8F0022C4
:10072000324B1A6089F3108803B0F0BCBB46B24666
:10073000A946A046F0BD1500EAE75246304B1A60C4
:10074000E6E79342C9D001F0F1F9C6E70621595610
:10075000002921DB4A005018800034188046A06828
:100760009860E079D871062020569871002824DB23
:10077000A488F01A6405241544440019E0240005F7
:10078000400D24022043988052181F4B9200B61847
:100790001A781970B271B3E7594600290FD1FF31A9
:1007A00091711A49918018490A789A71184A9B1BCD
:1007B0005B415A43120D0A70A2E71648E3E7164A56
:1007C0001649D21A083A5002400D01439980144943
:1007D00052080A43DA8093E7062151561300002994
:1007E000B8DA5A46002AEAD14546DCE7240100D0AF
:1007F00000ED00E0CD010010B401002000E100E0B8
:1008000080E100E080E200E05D38022001BDFFFFF2
:10081000AAAA000001BD0000EE01002000F0FFFFC9
:1008200000F8FFFF70B5EFF3058101240443EFF3F7
:10083000108C72B6214A1368002BFCD0BFF35F8F77
:100840001F4B05001F4AED1A6D416A43120D1E4DE4
:100850008900AE6852B27658A6421CD0062159567D
:1008600091421CD012215956914222D01E21595634
:10087000914220D02A2159560324914210D0134B83
:1008800019781A708171BFF35F8F00220B4B1A60C9
:100890008CF3108870BDAB680D4C5C50EFE7002402
:1008A0006100091989005B18FF2199710949998034
:1008B000E5E70124F4E70224F2E7C046240100D072
:1008C000B4010020AAAA000000ED00E05D3802207B
:1008D000CD01001001BDFFFF054B064A1360064A1B
:1008E000136053609360D3601361536193617047E9
:1008F0008080808000E400E004E400E0024B9C463D
:1009000061448900016070474000003410B5040064
:10091000FFF760FE01002000FFF7F0FF01235B42BC
:100920006360BFF35F8F10BD10B50400FFF752FE88
:1009300001002000FFF7E2FF01235B426360002318
:100940002372BFF35F8F10BD83680B4810B58446D8
:1009500061446244090112019A18591854684B689D
:1009600001209C4201D802D00020C0B210BD126804
:100970000B689A42F9D8F7E7FFFFFF0F074810B559
:100980000268EFF3108172B61368002BFCD0BFF33E
:100990005F8F03F025FB0020002110BDD43700201D
:1009A000F8B557464E464546DE46E0B599460CAB8F
:1009B0001C780DAB1B78060090469A460768002C01
:1009C00011D1BC7B002C42D065003B682D19033D42
:1009D00059194B78BB73002B00D1FB7300238B702C
:1009E0004B700B7004E065003B682D19033D5919ED
:1009F000B2682A4B94464246E3181B0163441A60CE
:100A00004A465A600A9A9A600B9ADA6000238B7001
:100A10004B700B707B7B9B46002B2BD022005946E2
:100A2000B8687B6898473A68002816D05B465846F5
:100A30005B005B445519033BA870D118D35C002BB5
:100A400000D06B705B460C707B73A34513D0F0BC79
:100A5000BB46B246A946A046F8BD5B465B005B4478
:100A6000033BD3189C705119525D002A00D05A7074
:100A70005B460B707C7342464B46307D00F010FBAA
:100A8000051E06D05346002B03D12100306800F02C
:100A900031FD0E9B002BDAD01D70D8E7FFFFFF0F52
:100AA000F0B5DE4657464E4645460023E0B58BB0CE
:100AB0000893664B8200D45800239B46099000F0AF
:100AC0009FFA626806000F00EFF3108572B6136894
:100AD000002BFCD0BFF35F8F23689C465B7B99465D
:100AE000002B68D0A2685A4B90464B441B01984497
:100AF00043461A685B6810001900801BB941002941
:100B000063DD099800F0CCFA002300229846002308
:100B10000692079300239A466368BFF35F8F5A4695
:100B20001A6085F310885346002B08D10028C6D1DF
:100B30000BB0F0BCBB46B246A946A046F0BD089B30
:100B4000414618024B461843D047626806000F0022
:100B5000EFF3108572B61368002BFCD0BFF35F8FE4
:100B6000002F4FDB33003B4302D02369002B60D1C1
:100B70002368D97B002907D04A00521819688C468F
:100B800049466244033A51709A7B002A01D14A4691
:100B90009A734A46DA734B46E168013BCA5C0132FC
:100BA000CA545B4623616368BFF35F8F5A461A607D
:100BB00085F3108883E700230022984600230692DD
:100BC0000793002300209A46A6E7002901D10028B8
:100BD00097D10021604600F00BFC43461A685B6821
:100BE0000692079343469B689A464346DB689846BD
:100BF000E3684B44013B1B7808931B0203432361CA
:100C0000002089E72369002BB2D0069A079B921B2C
:100C1000BB41002B15DB5946049101210391494644
:100C2000029141460191514620000091FFF7B8FE24
:100C3000B7E700F0E5F932003B0012184B41002BFA
:100C4000E9DA0122034B5242E5E7C0462434002092
:100C5000FFFFFF0FFFFFFF7F10B5144C6368002BF1
:100C600004D00A211248FFF749FE10BD2300114AA3
:100C70001021206800F0D6FA032000F0B5F9032017
:100C800000F07EFA03200C4900F0C4F9FFF7A2FC43
:100C90000A4B9C4603232375D0231B061B68604424
:100CA0006375074B80006060DC60DAE7FC010020C0
:100CB000D437002049090010A10A00104000003478
:100CC00024340020F0B557464E464546DE46E0B592
:100CD00085B0019310AB1B780600039300239A465E
:100CE000984600927268EFF3108972B61368002B71
:100CF000FCD0BFF35F8F3568AC7B002C49D0670018
:100D00002B683F19033FDB195A78AA73002A00D1D8
:100D1000EA73B168484A8C4600980199A2181201FA
:100D20006244106051600E9991600F99D160424603
:100D30009A705A701A706B7B9B46002B45D022002C
:100D40001900A8686B6898472A68002830D05B466D
:100D500058465B005B44D719033BB870D118D35C8D
:100D6000002B00D07B705B460C706B735C452DD004
:100D7000F3681B19013B18787368BFF35F8F424615
:100D80001A6089F310885346002B2CD100022043AF
:100D900007E07368BFF35F8F1C6089F31088012040
:100DA000404205B0F0BCBB46B246A946A046F0BDE5
:100DB0005B465B005B44033BD3189C70D119D25D4A
:100DC000002A00D05A705B460B706C73307D009A1D
:100DD000019B00F065F982460028C9D021003068E7
:100DE00000F088FBC4E7039B002B23D00E9B002060
:100DF0000F999847030004000D000B431AD00029F7
:100E00000ADA009A019B121BAB4100920193002B5E
:100E10000ADB039B9A4665E700F0F2F824184D417F
:100E200000940195002DF4DA0123044C5B420093F9
:100E30000194EEE70020B4E7FFFFFF0FFFFFFF7F05
:100E400070B542680400EFF3108572B61368002B8A
:100E5000FCD0BFF35F8F2068CEB2437BB3420AD091
:100E6000FF230B405A00D318026894466344033BA7
:100E70009B78002B13D0E268FF2394460B40634419
:100E8000013B0A0A1978D2B291420ED00020636861
:100E9000BFF35F8F00221A6085F3108870BD22694E
:100EA0008A42F3D100202361F1E7310000F022FBF8
:100EB000EDE7C04670B5EFF3058305000C0084B084
:100EC000002B0AD0164A0020536A9C4203D8926A2B
:100ED0000130AA421FD304B070BD124E0293019399
:100EE000114B0200009330000B00FFF7EBFE011ED8
:100EF000E8DD20BF3000FFF7A3FF094B0020596A4F
:100F00008C42E8D89B6A0130AB42E4D2641A631E7B
:100F10009C41E0B2DFE7E41A631E9C41E0B2DAE7ED
:100F200000400540FC0100207D090010F0B5EFF302
:100F30000582D6464F4646461000C0B51038EFF33E
:100F4000108872B6214C2368002BFCD0BFF35F8F52
:100F50000123190081401E4D1F006963AA461D4DE3
:100F600029601D4D2E78AC463500C5402F402B42E0
:100F700009D1BFF35F8F276088F31088E0BCBA46C1
:100F8000B146A846F0BD5346144D5F6A83005D59D3
:100F9000AF420ED3124A8E439B5862461670BFF37F
:100FA0005F8F0022226088F31088002BE6D09847DC
:100FB000E4E70C4B92009C46624413681360BFF355
:100FC0005F8F0023236088F31088D7E7280100D0C3
:100FD000004005403C7005405E380220D8370020B4
:100FE00094330020D03F054010B50100024A034869
:100FF000FFF7C0FA10BDC046D85500105C3802207B
:10100000034B596A0A00986A596A8A42FAD17047B2
:101010000040054070B504000D00EFF3108672B675
:101020001A4A1368002BFCD0BFF35F8F002D1BD032
:101030002000FFF7EDFA164981420AD02000FFF7A1
:10104000EFFA01212000FFF7D1FA0123A340114A52
:101050001360114BA400E550BFF35F8F00220B4BD0
:101060001A6086F3108870BD0B4BA200D550012288
:10107000A2400A4920000B7893430B700449FFF704
:10108000F9FA00212000FFF7B1FAE5E7280100D0C6
:101090002D0F001038600540943300205E38022088
:1010A000F0B54F46D6464646C0B507002F4C616A9C
:1010B0000D00A66A616AA942FAD18B4208D805D010
:1010C0000120E0BCBA46B146A846F0BDB242F7D90D
:1010D000EFF3108A72B6264801680029FCD0BFF3EE
:1010E0005F8F0125BD402349204C884609788946F9
:1010F0002943C9B28C46414660460870391D1E48D6
:10110000890065630A51B9000B50216A0020294209
:1011100019D0616A0800A66A616A8142FAD18B42DD
:1011200019D801D1B24216D8CC451DD00F4B1F2083
:101130001D625D6301230740BB40104A1E381360E7
:1011400043464A461A70BFF35F8F0022084B1A606D
:101150008AF31088B5E70020BFF35F8F0022044BAD
:101160001A608AF31088ACE70120ECE700400540E4
:10117000280100D05E380220D837002080E200E04D
:10118000EFF3108C72B60A490B68002BFCD0BFF34A
:101190005F8F01238340074A0748136202789A430E
:1011A0000270BFF35F8F00230B608CF310887047D1
:1011B000280100D0004005405E38022070B50500CF
:1011C00014001600002915D00C00002A12D08068E7
:1011D0006B689847296800280ED073009B1962003D
:1011E000033B1219CB18033A9C7088188A5C002ABA
:1011F00015D10670200070BD63001B197200033BFF
:101200009219CB18033A9E7088188A5C002A02D182
:1012100004703400EEE75A7004703400EAE75A7044
:101220000670E7E730B583600023CCB24373013327
:10123000047342608373C4730D000068012C06D9E7
:10124000421C0133DBB2137003329C42F9D1FF21FF
:1012500029404B005918002340180338437030BD13
:10126000F8B5CE46474606000C0080B5002907D0E9
:101270004D0003686D18033D5A195778002F04D1AB
:101280002000C0BCB946B046F8BD7900C919033981
:1012900088464344597889460021597051707368D3
:1012A0003A002100806898473368002814D04246ED
:1012B0009A18947059195B5D002B00D053700F7011
:1012C000270049463000FFF7CBFF3900020030000D
:1012D000FFF774FF0400D3E7424641465D19AF7043
:1012E0009A185B5C002B00D06B701470E9E7C04665
:1012F000F0B557464546DE464E46E0B50D006B005C
:1013000001685B19DF1E0400C85D83B00192CA1931
:10131000002850D043001B18033BCB185E78B4461E
:10132000002E1AD1019E002E42D0E67B002E04D062
:1013300073009B19CB18033B5D70A37B002B00D17E
:10134000A573E57300282FD10023537003B0F0BCC0
:10135000BB46B246A946A046F0BD72006244033ABD
:1013600089184A78904600224A7091465A700100C6
:1013700032002000FFF722FF43468246002B07D0B1
:101380005B0021684344033BCB185A78002A16D1EE
:10139000424651462000FFF711FF2168019BCA1900
:1013A000002BC2D10028CFD043001B18033BCB1821
:1013B00000219970C8E7019B002BB6D1C4E750000B
:1013C0008018033809184878834648464870587092
:1013D00041462000FFF7F2FE594680462000FFF705
:1013E0003FFF414602002000FFF7E8FE8046CFE7BE
:1013F000F0B557464546DE464E46E0B583B001910E
:10140000457B04006B0000685B19DF1EC15DC219DB
:10141000002952D04B005B18033BC3185E78B446DA
:10142000002E1CD1019E002E44D0E67B002E04D05D
:1014300073009B19C318033B5D70A37B002B00D185
:10144000A573E573002931D100232800537061731F
:1014500003B0F0BCBB46B246A946A046F0BD720040
:101460006244033A801842789046002242709146C6
:101470005A7020003200FFF7A1FE43468246002B3F
:1014800007D05B0021684344033BCB185A78002AFD
:1014900017D1424651462000FFF790FE019B010004
:1014A0002068C219002BC0D10029CDD04B005B1899
:1014B000033BC31800209870C6E7019B002BB4D1F2
:1014C000C2E7500080180338091848788346484618
:1014D0004870587041462000FFF770FE594680461C
:1014E0002000FFF7BDFE414602002000FFF766FE28
:1014F0008046CEE770B5040000292CD0437B8B4298
:101500002ED0056848004018033828188278002A31
:1015100021D053009B18033BEA5CEE188A4202D1AB
:101520001BE0002A08D053009B18033BEB185A78A5
:101530008A42F6D142785A700023012283704370A8
:101540002000FFF7D5FE617B02002000FFF736FE8A
:101550006073012000E0002070BD43783370EBE73A
:1015600001221900FFF7C4FE60730120F4E7C046B2
:10157000F8B5040006200D0000F0C8F9002844D09A
:101580002A4B2B49E21853425A418023DB039C46E5
:101590009205284B62441A60274B1A6010008B6832
:1015A0009843FBD1214B8021E3185A425341234AEF
:1015B0005B0049009952062000F0A8F92900C000FC
:1015C00001F0FEFDC30921D140270121260080251D
:1015D0006162A36200232C36AD0135432B600620E7
:1015E00000F094F93900800001F0EAFD6023E26A1E
:1015F00053406E221A4080235B0133431A60104B24
:10160000236310232B600D3BA364F8BD0D4A934266
:1016100003D900230C4F0D49D8E77F221040013039
:1016200040089F0119003F180300CFE70080FCBF6E
:1016300000C0004000E0004000F00040E83700201B
:1016400001030000FEFF0000C0FF3F00FFFF00009D
:1016500030B50C2083B000F0B7F9FEF783FF002807
:101660000ED0944B944A1A605A609A60DA601A61FC
:101670005A619A61DA611A62904A5A6203B030BDC7
:101680008F4CA06700F0A8F901228E4B1A60636CA2
:10169000012BFCD103228C4B1A60894A936B012BDE
:1016A000FCD101330121894A89480093043300F0B9
:1016B00033F90523874A00930121874800F02CF96C
:1016C000864B5A68FF2A02D8802252005A60802234
:1016D000784C7D4B21691201804D1A60002905D09C
:1016E000606901F06DFD01300138FDD1E0217B4BD7
:1016F00002201A681140802252012A4311601968A1
:10170000484003210140116004219A681142FCD035
:101710008022802192012A43090111608022520017
:101720005A606F4B23616F4B5968FF2900D85A608C
:101730000321644A6B4B116002399A681142FCD054
:10174000E0201A681040802252011A431060186885
:101750004840032101400220116062498A6810421A
:10176000FCD0802292011343802212011A60802251
:101770005D4B52004A6063615C4B5968FF2900D899
:101780005A6080225A4BE1691201584D1A600029B3
:1017900005D0606901F014FD01300138FDD1E0226F
:1017A00052490B681A4080235B012B431A60802347
:1017B00080229B012B4312011A6080223E4B520073
:1017C0004A60E3614B4B5968FF2900D85A60802278
:1017D000494B216A1201474D1A60002905D0606902
:1017E00001F0EEFC01300138FDD1E02241490B68E7
:1017F0001A4080235B012B431A60802380229B01C7
:101800002B4312011A60802380225B004B602A4B1D
:10181000D2022362394B5968914200D25A60802229
:10182000374B616A1201354D1A60002905D0606995
:1018300001F0C6FC01300138FDD1E0222F490B68D0
:101840001A4080235B012B431A60802380229B0176
:101850002B4312011A608023DB024B60174B63623B
:10186000284B5A68FF2A02D8802252005A608022F0
:10187000254BA1691201234D1A60002905D060692A
:1018800001F09EFC01300138FDD1E0221D490B68BA
:101890001A4080235B012B431A60802380229B0126
:1018A0002B4312011A6080235B004B600E4BA36137
:1018B000E4E6C046AC330020006CDC021BB700003D
:1018C000008000403CB0004030B00040002F68591C
:1018D00000800240008C864700C0024030800040FB
:1018E000001BB7003C800040405973075480004003
:1018F00054B000406080004060B000406C80004008
:101900006CB000404880004048B00040014B80006F
:10191000C0587047AC330020F0B5C646040000B58F
:101920000C2090461F000E0001F04AFC4101091AEC
:101930008D01691AC90009188901404601F040FC6F
:10194000069B3F041A0323681743002B22DB1A4B24
:101950001A4DE21853425A4180235B019C46120300
:10196000174B62441A60174B1A601100AB68994319
:10197000FBD1C022231D92011A4321232660A060BF
:1019800013602368002BFCDA0823E760136080BC37
:10199000B846F0BD3F2322681340B342D7D1A368B5
:1019A0001B051B0D8342D2D1EE22E368D202134005
:1019B000BB42CCD1EBE7C0460040FDBF00C00040B9
:1019C00000E0004000F000408023024A9B000343F7
:1019D000D362704700800540AA23064A1B011360AA
:1019E0002F230549D360054B19605368002BFCDA9F
:1019F0007047C0460040024000B0FA00006002405C
:101A00002C4B2D4A70B51A602C4A2D4B2D491A606B
:101A100014008B689C43FBD12B4D2C4EB54208D251
:101A2000013E761BB60808CD984723000134B34227
:101A3000F9D1FFF70DFE264A214B1A60214A93681F
:101A4000DB43DB01DD09002BF9D14022214B224C85
:101A5000224E9A675A671A67DA66B44208D2236838
:101A60002000002B20D00C34FEF75EFFB442F6D3EA
:101A70001B4E1C4CC022A168300001F071FFA66013
:101A8000FEF79AFDFEF728FFFFF7E6F8164C174E13
:101A9000B44208D2013E361BB60808CC98472B004A
:101AA00001359E42F9D170BD0834FEF72FFFB442D4
:101AB000D5D3DDE700E00040BFCDFBFEFE7F3C005C
:101AC00000F0004000C000407C0200208C0200209A
:101AD000FFFFFF0100F001406C0200207C020020AB
:101AE0000000002000ED00E08C02002094020020A5
:101AF00000BEFDE710B5FFF7FBFFC0460FB400B511
:101B0000084883B002F090F8049B002B07D005A989
:101B10001800019101F0DAFA034802F085F801207B
:101B2000FFF7E6FFFC5500100C56001010B50148F9
:101B3000FFF7E4FF105600107047C046F8B557464F
:101B40004E464546DE46E0B599460A9B07009A4652
:101B50000D9B8846934615000B9E9B0710D10C9B4E
:101B60009E420DD29D1B14000E005D4422004B4688
:101B7000013431002020B847A542F7D1B0460B9E72
:101B8000002E27D0444675195346AA1B013E985D86
:101B900021004B46B847002EF6D123002C00984672
:101BA0000D9B9B070FD55B46E51A0C9BAB420AD9F0
:101BB0004646984622004B46310020200135B84762
:101BC0000134A845F6D82000F0BCBB46B246A94671
:101BD000A046F8BD2C00E3E7F0B54F464646D64692
:101BE000C0B584B098460EAB1B78129F99469446B8
:101BF0000D9C109B119EBA0725D4002E4BD19C4200
:101C000000D3BFE001223A4092461F2C00D9B8E031
:101C10000C9A551E302201E0202C03D001342A55A5
:101C2000A342F9D85246002A0DD0A6420BD9202C47
:101C300044D00C9A551E302201E0202C3ED00134B5
:101C40002A55B442F9D1FA064DD57A053FD4002C75
:101C500039D10F9B102B00D179E00F9B022B00D1C3
:101C60008AE030230C9A012413704B46002B3FD09E
:101C70002D230C9A135501340C9B62460093039755
:101C8000434602960194FFF759FF04B0E0BCBA4600
:101C9000B146A846F0BD012215003D40AA463A4291
:101CA0002FD04A46002A02D10C323A4200D0013EDF
:101CB0009C42BAD21F2CABD9202E27D92024FA0659
:101CC000DAD57A0503D4A3422DD0A6422BD00F9BA0
:101CD000102B32D0022B20D0202CCDD030220C9BC8
:101CE0001B191A700134202CC6D04B46002BBFD1D3
:101CF0007B070DD43B07BFD520230C9A1355013425
:101D0000BAE79C429FD21F2C00D881E720249AE793
:101D10002B230C9A13550134AEE7202CACD00C9B2E
:101D20001B1901343AE0631E012C92D00F9A102A3D
:101D30002AD0022A2FD01C00D0E7BB060ED4202CBC
:101D40009AD00C9B1A19013478231370C4E7BB0690
:101D50000DD478230C9A01241370BFE7202C00D1F6
:101D60008AE758220C9B1B191A700134B4E75823D8
:101D70000C9A01241370B1E70C9A6033012413709C
:101D8000ACE7202400265EE7023CBA06E9D40C9AB0
:101D900012191C00D8E70C9A9246534462221A701A
:101DA0009AE7C04610B5002800D110BD01F0F0FE42
:101DB000FBE7C0460B0010B5002802D049681B683D
:101DC000984710BDF0B5DE4657464E464546E0B54D
:101DD0009BB09B46249B89469846259B0B900C9272
:101DE0004046424619009A4601F0A3FC002800D064
:101DF000D8E0012240465146774B524201F094FC14
:101E0000002800D0CEE0012240465146734B52429A
:101E100001F074FC002800D0C4E0002200234046FA
:101E2000514601F06BFC002800D0B9E14246534610
:101E30000A9209938023289ADB001A400E92289A6E
:101E40001A4201D1062326930A9A099B16001343CE
:101E500000D0C7E0289B002500261B0500D49BE18D
:101E600000230D93269A0D9B9A4200DC9FE1D01A25
:101E7000431E26938023289ADB001A430023002761
:101E800028920D93279B0024BB4200D9DC1B022320
:101E9000289A1A400E92289A134203D07B427B4123
:101EA0005B421C400D9B002B07D00A9809992A0021
:101EB000330001F0CAFB0A9009910022002340463A
:101EC000514601F01BFC002805D080200006844606
:101ED000099961440991289A414B0B9D1340049341
:101EE000269B0A9A0293099B039400920193494608
:101EF0005B4628000C9A00F08BF90400002F62D09A
:101F0000289B220098061F23C0179843631C9846FD
:101F100049465B466530A8470D9B0025DA179C189B
:101F2000DB0F9A465440013F01E0202D13D00AAA4E
:101F300094461F23200063440A2101355E1901F0F5
:101F40003FF93031317020000A2101F039F92600C3
:101F50000400092EE9D805230693002304930A33CD
:101F60000393534605970B9F029312AB009342468F
:101F70005B46494638000195FFF72EFE0E9B040094
:101F8000002B20D00C9BC51A279BAB421BD91E00EF
:101F900022005B46494620200135B8470134AE4255
:101FA000F6D810E0289B42460493279B49460393AA
:101FB000269B0B9802935346009201935B460C9A22
:101FC00000F026F9040020001BB0F0BCBB46B2466E
:101FD000A946A046F0BDC046FFFFEF7FFFFFEFFF21
:101FE000FFF7FFFF734B099F9C467800400D60444C
:101FF00001F0B2FB704A714B01F041FB704A714B2A
:1020000001F01EFB3B03704A1B0B1A4304000D003A
:10201000300011006D4B002201F00DFB6C4A6D4B3E
:1020200001F02DFB02000B002000290001F008FB4D
:1020300001F0AAFB0D9001F08FFB674A674B04008B
:102040000D0001F01CFB0022654B01F0F9FA01F0D4
:102050009BFB644A0600644B2000290001F00FFB43
:10206000040030000D000F9601F076FB5F4A604BD4
:1020700001F005FB02000B002000290001F0DBFA53
:1020800002000B0006000F0001F0F9FA3200040014
:102090000D003B003000390001F0D2FA0022109010
:1020A0001191544B2000290001F0CFFA0022524B2D
:1020B00001F0C6FA02000B002000290001F0C5FA69
:1020C00000224E4B01F0BCFA02000B002000290058
:1020D00001F0BBFA0D008021040032003B0000201B
:1020E000C90501F0A8FA02000B002000290001F048
:1020F000A7FA02000B001098119901F0A6FA00222D
:10210000314B01F09DFA3E4B0F9C9C4664440022EB
:10211000230501F0B4FA05000E0002000B000A9836
:10212000099901F0EBFA00280AD00D9B2800013B29
:1021300031000D930022304B01F087FA05000E00AC
:10214000C6270D992B0063318F42BF4128997F42EA
:102150000437090500D495E6334300D182E6099C93
:10216000284A2100284B0A9801F0D6FA002808D006
:1021700000222100254B0A9801F0C0FA002800D067
:1021800070E6269B002B00D17CE60E9B5A1E9341E5
:10219000269AD31A269375E6002304270D9371E639
:1021A00043460A9380231B065344099342E60023C7
:1021B00026935FE601FCFFFFFB799F501344D33F5A
:1021C000B3C8608B288AC63F0000F03F0000F83F8C
:1021D00061436F63A787D23F71A379094F930A4088
:1021E0000000E03F1655B5BBB16B0240EF39FAFE77
:1021F000422EE63F00002C40000024400000184022
:10220000FF0300002D431CEBE2361A3F80842E4171
:10221000F0B54E46DE4657464546E0B597B099467E
:10222000209E219F229B8346984607910C923B005B
:1022300032003000390001F07CFA002800D0A9E11A
:10224000012230003900CA4B524201F057FA0028EF
:1022500000D0E1E0012230003900C64B524201F0CB
:1022600063FA002800D0B7E0002230003900C24BEA
:1022700001F05AFA002800D099E00022300039001D
:10228000BE4B01F03BFA002800D090E00022002372
:102290003000390001F032FA002800D0B1E000230C
:1022A0000D93249B5B0501D40623984608AB9C46FE
:1022B0001722002430234146624404E001341355C0
:1022C0000139202C01D00929F8D88846300039007E
:1022D00001F05AFA4346DA00A94B05009B181A6828
:1022E0005B680892099301F037FA02000B00300096
:1022F000390001F0A0F9089A099B01F0C0F90A9091
:102300000B9101F065FA824601F022FA02000B00FF
:102310000A980B9901F08FF900229A4B0A900B91C1
:1023200001F002FA002800D1C0E001239C46E244FB
:10233000504601F00DFA02000B000898099901F0CF
:10234000E3F9002802D000239A4601354346002BCA
:102350006AD008AB17269C4608956644554614E09B
:1023600001235B4243440A2128009A4600F028FFDB
:10237000013430313719397028000A2100F020FF6C
:10238000092D00D8D0E0D0460500202CE8D10EABB6
:1023900098460323249A1340012B00D196E0202372
:1023A000249A01930392239A434602921EE0249BAF
:1023B00058460493239B00960197039343460C9A37
:1023C000029307994B46FFF7FDFC17B0F0BCBB46E4
:1023D000B246A946A046F0BD249B5B070ED403225B
:1023E000694B2499019203912399029100935846D5
:1023F0004B460C9A0799FFF7A1FBE6E70422634BD3
:10240000EFE73B0032000020002101F014F9012326
:1024100006000F000D9344E7249B0393239B029334
:10242000042301935A4BE1E7280001F095F90200DB
:102430000B003000390001F0FEF8524B002206007C
:102440000F0001F05BF90EAB984600280AD100227C
:10245000300039004B4B01F067F9002802D1EB073F
:1024600000D50135202C94D008AA944617232800C3
:1024700063440A2101341E1900F07AFE303128002D
:1024800031700A2100F074FE051EEBD10323249A5B
:102490001340012B1BD0202C00D180E70D9B002B7B
:1024A00035D02D224146631C0A5579E700220A984F
:1024B0000B99344B01F022F9002800D046E753462F
:1024C000002B51D101239C46E2443FE72024239B6B
:1024D000002BE0D00D9B002B03D1249A0C33134228
:1024E00002D0239B013B2393239BA342D3D908AB68
:1024F0009C46172230236244202C00D14FE72399B9
:10250000013413558C42C6D0202CF8D147E7249BC8
:102510005B0724D4249A2300120700D440E720222A
:10252000414601330A553BE75746089D202C00D110
:102530002DE7220030214046002F09D00132B1544E
:10254000202A00D123E7D3431B191B18002BF5D1F8
:102550000EAB98462E234146541C8B5482E72B2207
:102560004146631C0A551BE7DB0700D4EEE6A9E7EA
:10257000FFFFEFFFFFFFEF7F65CDCD4165CDCDC103
:10258000185800100000E03F1C56001020560010A4
:102590002C560010249B0393239B02930323019347
:1025A000004B23E728560010F0B5DE464E4657464E
:1025B0004546E0B59FB01C00289B91460993C94A47
:1025C000C94B8B4608901A60002900D118E20023FD
:1025D00020789A46002800D11AE226001D005C46A9
:1025E0000AE02A006F1C4B46089D2100A8473D00C9
:1025F00001363078002870D02528F2D110239B4670
:10260000083B9A46043B9846023B00219C46721CBC
:10261000107816000300203BDBB2102B03D8B34F19
:102620009B00FB589F460300303B092B32D9002307
:102630000A932A2868D0002398462E283ED003000B
:10264000683BDBB2122B1CD8A94A9B00D3589F468B
:10265000012301321943DBE7634601321943D7E70F
:10266000434601321943D3E75B4601321943CFE7B2
:10267000534601321943CBE780235B00707819433E
:1026800001360300253BDBB2532BAAD8994A9B00A5
:10269000D3589F4600270300B800C01901364000F8
:1026A000C018337830381A00303A0700092AF3D9B5
:1026B0000A901800002398462E28C0D180237078F5
:1026C000DB0019430300303B721C092B00D8A1E149
:1026D0002A2800D1B2E11600B1E7A346AA462C0091
:1026E000D14503D801235B424B449A464B465246A0
:1026F00059460020089DA84720001FB0F0BCBB46EB
:10270000B246A946A046F0BD099B40CB0A96002ED2
:1027100003DB50780993561C8DE72838014370423B
:102720000A9009935078561C85E7782800D1DFE19C
:10273000582800D14CE26F2800D14FE3622801D124
:1027400000F030FC10230A009A430B92692801D054
:1027500000F0A9FC0A230C934B0500D5D0E10B9A9D
:10276000802311009B0019408B461A4200D0A1E241
:10277000802311005B0019408A461A4200D0B6E35C
:1027800013005B0600D5EDE2130009991B0601D486
:1027900000F076FC08C91BB2D8171A18424092B252
:1027A00009919346DA0F1292002B09D1802310224F
:1027B0000B99DB000B4091430B91002B00D0E4E21E
:1027C0000B9A6123920600D541230EA91F228C4645
:1027D000DBB262440A3B5F461395A34655460C9C08
:1027E000B2460D9316000AE03033DBB20135735563
:1027F000A74200D2EDE2202D00D1EAE2070021003D
:10280000380000F0DDFCCBB20929EDD90D9A9446D1
:102810006344DBB2EAE780239B00707819430136FA
:102820002FE77078682800D1CDE180230136194365
:1028300027E770786C2800D1BFE180235B00194343
:1028400001361EE7462800D19BE10722099B04912F
:10285000073393430A9A19000392424602920CC925
:1028600008980092019309912A004B462100FFF736
:10287000CFFC01360500BCE62A006F1C4B46089DC4
:1028800021002520A84701363D00B2E68B0700D481
:10289000ADE1099B2A009A466B1C9846534601CB32
:1028A00021009A46089F4B46C0B2B8470A9B9C46F7
:1028B0006544012B00D886E2089B4746B0462600B7
:1028C0004C4699463A002300013731002020C84782
:1028D000AF42F7D1A146534634004646099301362C
:1028E00087E6C046A9250010203400203456001089
:1028F00078560010C4560010099B04CB9B464346F3
:102900000992002B00D1C6E013789C46002B00D121
:10291000BDE34346013B099A0133D0180A9F1300D7
:1029200001E0834203D05A780133002AF9D1099A91
:102930000A979B1A0B9380230A00DB001A400C9223
:10294000194204D00B9B434501D943460B93022304
:102950001A000A400D920B4200D187E16046002820
:1029600000D168E10C9B002B00D10DE1A844C246C8
:10297000099B57465B1B9846089BB2462A002600D7
:102980004C46994609E023003100551CC847434690
:10299000585D002800D126E12A009742F3D1A146D4
:1029A0003D00340056460D9B002B00D043E15B46B2
:1029B000013609931DE6099B1A0008CA9246002BAE
:1029C00048D0212211438B460EA884461F21614422
:1029D000099500220F27A4460D0002E0202A0CD002
:1029E0000B003C001C4020003730092C00D8073871
:1029F0000132A85419090F2BF0D86446099D32E022
:102A0000DC4B2078089300239A46002800D0E4E5A8
:102A1000002465E6434606000A9F9800C01801326C
:102A2000400080191678030030003038303B092808
:102A3000F3D93000984616000A9700E6099B023643
:102A400004CB9046D2434046D217104080460993AB
:102A50003078F4E510220800904311321043834689
:102A600000224905B0D55B460693082305934346EB
:102A70000493102303930023029316AB0192009357
:102A80002A004B4621000898FFF7A6F85346050098
:102A900001360993ADE513789C46002B00D1F7E28F
:102AA00002235B4237E7202302009A43472A04D1DE
:102AB00080231B01194302239843452801D1202379
:102AC00019430722099B0491073393430A9A19007B
:102AD0000392424602920CC9089800920193099110
:102AE0002A004B462100FFF76DF90136050080E50D
:102AF00010230C930C230A009A430B924B0503D529
:102B000001230B9A9A430B92692800D127E6642887
:102B100000D124E60B9A802311009B0019408B46BC
:102B20001A4200D066E1802311005B0019408A46FA
:102B30001A4200D039E213005B0600D53CE11300D5
:102B40001B0600D4A6E2099B04CB1204120C934688
:102B500009935B46002B00D09AE10B9A10331100C9
:102B600099430B91520500D492E100239A460B9BA6
:102B700006930A9B0593434604930C9B03930023FF
:102B80000CE12023194360E6099B0A9A5B1B9846D7
:102B90004B4691461F00B2462600089C2A003B0087
:102BA0003100A04743460135585D0028F6D14A461A
:102BB0003400B94656460A92F5E6C0239B00B07829
:102BC000194302365DE5C023B0781943023658E553
:102BD0000C230A009A4314331A43103B0B920C93B4
:102BE0004B058DD496E7A14634005646DBE60A9A9B
:102BF000012A00D853E26B1E9F18089BB04626009E
:102C00004C4699462A002300013531002020C84750
:102C1000BD42F7D1A14634004646099B3A0001CB9C
:102C2000210098467D1C4B46089FC0B2B8474346DA
:102C300001360993DDE40B9B0A9AA8469A4200D814
:102C4000B5E694466544ED1A089B4746B046260013
:102C50004C4699463A002300013731002020C847EE
:102C6000AF42F7D1A14634004646A0E60B9A0A9936
:102C7000531C914200D814E24B199B1A1F00089B69
:102C8000B24626004C4699462A0023000135310001
:102C90002020C847BD42F7D10A9BA14601330B93C0
:102CA000099B34001B7856469C466046002800D09D
:102CB00058E67CE60722099B07339343013294468A
:102CC0009C4462465F6809921A68FB17109311933F
:102CD00010981199030053400E930B007B400F9303
:102CE00094460E9A0F9B121A8B410E920F93FB0F74
:102CF0006246129300233A439B463DD00B9A6123D0
:102D0000920600D541230022DBB20EA90A3B8C4675
:102D100092460D9343461F326244139515965546CD
:102D20000E9E0F9FA24690460C9C14930CE03032EE
:102D3000D2B2434601355A55BB4500D18AE1202D18
:102D400000D18AE106000F00220000233000390084
:102D500000F074FAD2B2092AE9D90D9B9C4662446C
:102D6000D2B2E6E7FF23099904C913401A0009917A
:102D700017E5C046391B00100B9A10331100994318
:102D80000B915205BAD500239A460B9B06930A9BDA
:102D90000593434604930C9B0393129B0293534663
:102DA000019316AB2A00009321004B460898FEF7CA
:102DB00013FF013605001CE4FF22099B02CB1140E2
:102DC0008B460993C5E65346454609930136FFF7FE
:102DD00010FC56465C46AA46139DD6E708230C9382
:102DE0000B910B99642800D084E60B9B5B0500D502
:102DF00086E6B4E40722099B0733934301329446E5
:102E00009C44624609921A685B6810009B46130056
:102E10005A46134307D10B9A1033110099430B9173
:102E2000520500D5A1E60B9A6123920600D54123F5
:102E30000022DBB20EA90A3B8C4692460D93434614
:102E40001F3262445F461295A34655460400B246BF
:102E500090460C9E13930DE03032D2B243460135BA
:102E60005A550023BB4200D100E1202D00D100E1E2
:102E700004000F00320000232000390000F0DEF9CA
:102E8000D2B2092AE8D90D9B9C466244D2B2E5E74A
:102E90000B9A6123920600D54123DBB20EA90A3BAF
:102EA0001F228C460D93230062445C461295170046
:102EB00055469B46B2460C9E08E03033DBB20135E6
:102EC0007B55B4420ED3202D0CD0040031002000DD
:102ED00000F076F9CBB20929EFD90D9A94466344F4
:102EE000DBB2ECE756465C46AA46129D3FE6099BDC
:102EF0001A0008CAD91713925A184A409246DA0F94
:102F00001292002B08D1802310220B99DB000B407A
:102F100091430B91002B2BD10B9A6123920600D584
:102F200041230EAA1F279446DBB20A3B0D95674446
:102F30005D460993A3465446B2460C9E08E03033E2
:102F4000DBB201357B55B4420ED3202D0CD00400EA
:102F50003100200000F034F9CBB20929EFD9099AE9
:102F600094466344DBB2ECE756465C46AB460D9DA7
:102F70000B9B2A0006930A9B21000593434604936A
:102F80000C9B08980393129B013602935B460193B6
:102F900016AB00934B46FEF71FFE139B05000993EB
:102FA000FFF727FB02230C931AE7099B04CB9246F9
:102FB0001293002A08D1802310220B99DB000B40CA
:102FC00091430B91002B2BD10B9A6123920600D5D4
:102FD00041230EAA1F279446DBB20A3B0D95674496
:102FE0005D460993A3465446B2460C9E08E0303332
:102FF000DBB201357B55B4420ED3202D0CD004003A
:103000003100200000F0DCF8CBB20929EFD9099A91
:1030100094466344DBB2ECE756465C46AB460D9DF6
:103020000B9B2A0006930A9B2100059343460493B9
:103030000C9B08980393002302935B46019316AB05
:1030400000934B46FEF7C8FD129B0500099301361D
:10305000FFF7CFFAB44200D871E6149B54460E969F
:103060000F97AA469846159E139D8EE6A64200D855
:10307000FBE6139B56469846AA465C46129D76E5AB
:1030800008C9D8171A1842400991FFF78AFB002394
:103090000B9350E4099B04CB9346099359E52F0009
:1030A000BBE50B9301E6063B0C939AE600B585B0B1
:1030B0000391012102900093034813004A4202A9A0
:1030C000FFF772FA05B000BDB51D001010B5094A32
:1030D0000300146884B0002C08D001220091064837
:1030E000524203A9A047012004B010BD00F09CFD8E
:1030F0000020F9E720340020A51D0010014804211C
:10310000014B1847300200202D310010142310B558
:103110000100188804331B88984710BD162310B58A
:103120000100188802331B88984710BDF8B5474640
:10313000CE4680B50F1E19D01423994604330400DF
:103140000025012698464B461888434621681B886F
:10315000984701C4431E9841013540420640AF42A2
:10316000F1D13000C0BCB946B046F8BD0126F8E741
:10317000124A936F9B0815D29066D166002905D03C
:10318000FFE7FFE7FFE7516F106F704704B580213D
:103190000906C2175140002800D0C84302F0F4F9D4
:1031A000002104BDF0B5146E556E576F166FFFF712
:1031B000E3FF1466556657671667F0BD000000D040
:1031C000114A936F9B0813D210665166002905D0EF
:1031D000FFE7FFE7FFE7516F106F704704B5002866
:1031E00001D00020C04302F0CFF9002104BDC04649
:1031F000F0B5146E556E576F166FFFF7E5FF146646
:10320000556657671667F0BD000000D094464A4ADD
:10321000926F9208624601D228E0C046F0B5464E51
:10322000346E756E776F366F00F020F89446424A20
:1032300014665566576716676246F0BD94463E4A67
:10324000926F9208624601D254E0C046F0B53A4E01
:10325000346E756E776F366F00F04CF89446364AD0
:1032600014665566576716676246F0BD002B24DB6F
:1032700011D000293EDA00B5C943404200D10131E6
:1032800000F038F8C943404200D10131DB435242DB
:1032900000D1013300BD002AEBD1002801D1002963
:1032A00005D00020C90FC90701D1C043410800B5AE
:1032B00002F062F90022002300BD00B500290ADBFC
:1032C000DB43524200D1013300F014F8C9434042BD
:1032D00000D1013100BDC943404200D10131DB437F
:1032E000524200D1013300F005F8DB43524200D1D5
:1032F000013300BD002923D1002B18D1002A0CD0A6
:10330000BC460D4F38667A6600210023FFE7FFE7D1
:10331000FFE77A6F386F67467047002801D007488B
:10332000010000B502F028F90022002300BD0200D0
:103330000B00002000217047000000D0FFFFFFFFBE
:10334000002B00D0BFE0130C28D1002AE7D080B4B6
:10335000114F39667A66FFE7FFE730B4040C7B6FE4
:10336000396F1B0423433B667A66FFE7FFE7FFE7FD
:10337000C04684B27B6F3D6F1B0423433B667A6675
:10338000FFE7FFE7C04600232C042D0C7A6F386F4F
:1033900000196941B0BC7047000000D0F0B59446F8
:1033A0000025140E01D112020835140F01D11201AB
:1033B0000435940F01D192000235D40F01D152008F
:1033C0000135D40B0134254F7C66254C3C660E0C30
:1033D00093B2FFE7FFE7FFE73C6F6643360C7703E6
:1033E000BE467343DF0B5B04C01AB941130C734331
:1033F000DB18C91ACE086643360CB64493B2734341
:103400001F0F1B01C01AB941130C73431F0B1B057F
:10341000C01AB941860D8F023E436643360C092D12
:1034200024DB520A7243801A7703460A6643360C3D
:1034300016235B1BDE40DF40BF1964466643821BD8
:103440007046043506330100D940A840C01900D3A6
:103450000131A24206D20023F0BD0000000000D0DE
:10346000FFFFFFFF121B0130F3D3F1E709277F1B9A
:10347000FE406446A2B27243801A00D20139220C87
:103480007243130C1204821A99410B0070460435E2
:1034900013370100F940A840801900D30131002BF7
:1034A00002D1A2420AD2F0BD013000D30131121B79
:1034B000FAD2013BF8D1A24200D2F0BD013000D3D4
:1034C0000131121BF7E7F0B51C0C00D080E00CB402
:1034D00000251C0A04D11B02160E334312020835C4
:1034E0001C0B04D11B01160F3343120104359C0B36
:1034F00004D19B00960F334392000235DC0B02D1BE
:1035000092185B4101351C00971864410134464F05
:103510007C66464C3C660E0CFFE7FFE7FFE7C046C3
:103520003C6F6643360C7703BE4697B27743C01BA9
:1035300000D20139C01B00D201399FB27743C91BA9
:10354000C91B170C77437E04FF0B801BB941CE08C3
:103550006643360C0C2D33DBB644120B1F053A4381
:103560001B0B97B27743C01B00D201399FB2774340
:10357000C91B170C77433E043F0C801BB941860DD5
:103580008F023E43664329277F1BFE400C3D774652
:10359000AF40BF1930BCA2B2ABB272437343801AC2
:1035A0009941220C7243130C1204801A99410200B3
:1035B0000B000137001BA941F9D2781E0021F0BD94
:1035C0000C277F1BFE4077467F0BAF40FF19E0E7DB
:1035D00000245D1C07D0144F7D663966FFE7FFE7C6
:1035E000FFE7FFE73C6F95B29EB265436643401B21
:1035F000B141150C1E0C6543664336042F0C3E4347
:103600002D04401BB141994204D202000B0020005E
:103610000021F0BD01D19042F7D3801A99410134C5
:103620009942F2D3F6E70000000000D0FFFFFFFF51
:1036300048404140484018B4134B5B68019308BDB3
:1036400018B4114B1B68019308BD94460F4A926F42
:10365000920805D2624618B40B4BDB68019308BD93
:103660000A4AF0B5146E556E576F166F6246FFF733
:10367000F2FF064A1466556657671667F0BD18B420
:10368000014B9B68019308BD98030020000000D007
:10369000FFB550404240504059404B40594000E037
:1036A000FFB5154F4C00640D03D0BC4204D10C0390
:1036B00014D80020090D09055C00640D03D0BC423C
:1036C00004D11C030AD800221B0D1B0501264B4008
:1036D00009D44B4003D58B4200D18242FFBD9942B1
:1036E000FCD19042FFBD0B43DB1803431343F5D0DD
:1036F000C9434918FFBD0000FF07000000B5FFF7F0
:10370000CFFF804100BDC04600B5FFF7C9FF01D91A
:10371000002000BD012000BD00B5FFF7B9FF01D9B1
:10372000002000BD012000BD00B5FFF7B1FF8041C2
:1037300000BD012040054A00121804D85A00121892
:1037400001D800207047012070470020704700001A
:103750000021002805D17047C1174840401AFAD00F
:10376000C90713B5064B1B6898470CBC441CA24004
:103770001005120B0349091B09051943114310BD1C
:10378000D03600201F04000010B54C00620D8023CD
:10379000D218DB00D21A5B057E2A10DD9E3A13DABE
:1037A000CC170903490819435242D140640001343F
:1037B0001532202A05DAD0400843604310BD0020AE
:1037C00010BD0846604310BDC80FC018013810BDB9
:1037D00018B4024B5B6A019308BD000098030020F7
:1037E00018B4024BDB6F019308BD00009803002062
:1037F00018B4024B9B69019308BD00009803002098
:1038000010B50148FEF77AF968580010132370B517
:103810001D78012D11D035DD1C48FFF77FFC1C4CB5
:1038200001008022200000F09BF8022D27D01948CB
:10383000FFF76CFC184B186070BD184B144C2360DC
:103840006360A360E36023616361A361E36123625A
:103850006362A362E36223636363A363E36323643A
:103860006364A364E36423656365A365E36523661A
:103870006366A366E36623676367A367E367084B32
:10388000A364D4E7024C064BA364D0E75344000082
:10389000980300204C330000D0360020013800107F
:1038A000A538001007B5604601880A0A0230DF2AF1
:1038B000FAD1C9B2820804D30288408800041043B8
:1038C00000E00068014A5050039007BD98030020B3
:1038D000014BDB6F18470000D436002010B50148BB
:1038E000FEF70CF924560010132310B510481C786D
:1038F000FFF714FC0100012C0AD003DD80220D48E3
:1039000000F02EF80C48FFF701FC0C4B186010BDBE
:10391000084C5422200000F023F82300084A80338A
:103920002168002900D122600434A342F8D1E9E7DC
:1039300053460000D43600204C330000D03600201F
:10394000DD38001001480421014B184740020020D7
:103950002D310010014B1B68184700004002002069
:10396000014B5B681847000040020020030010B5BF
:10397000080011001B68984710BDC046F0B54646C8
:103980004F46D646C0B5437D80460E001700002B3B
:1039900046D0002A3FDD4B1E9946244B01250024CA
:1039A00000209A460DE04B461B5D0D3B5A425341A9
:1039B000325DDBB20A2A0BD02B00013401359F4265
:1039C0001ADD002CEFD14346325D1B7D0A2AF3D16C
:1039D000002BF1D1A04204DA4346211A1B683018AB
:1039E0009847434650461B680221984701342800F7
:1039F0002B0001359F42E4DC874204DD4346391A3F
:103A00001B6830189847F619013E33780D3B5A422F
:103A1000534142461375E0BCBA46B146A846F0BDD4
:103A20000368110030009847F5E7C046E0580010E1
:103A3000F0B5C6460C000968060000B5802906D01E
:103A40004B1C23606418267180BCB846F0BD0F4B38
:103A50001D68002D16D0231D98460D4F02E02D69DC
:103A6000002D0FD02B68002BF9D03B68002B01D024
:103A7000AB42F4D1280041462268FFF77FFF2D6951
:103A8000002DEFD101230021DBE7C04614340020D4
:103A900018340020F0B5DE4657464E464546E0B5A0
:103AA00085B017001C0006000D00FDF7A9FA0023E1
:103AB000304A12184B41002B58DB2F4908008A4628
:103AC00001F06AFD01906B1C03D1300001F01CFD78
:103AD0000500002C25D1294B9846294B1C68002C49
:103AE00015D0002F20D1274F02E02469002C0ED0E2
:103AF0002368002BF9D03B68002B01D0A342F4D1FE
:103B000020002A003100C0472469002CF0D1019B1D
:103B1000002B27D105B0F0BCBB46B246A946A04653
:103B2000F0BD194B9846D8E7164B994602ABDF1DFE
:103B30000A239B4602E02469002CE8D02368002B6E
:103B4000F9D04B461B68002B01D0A342F3D12A00C9
:103B500031002000C0475B460122390020003B7045
:103B6000C047E8E7504601F0FFFCD3E70122074BCE
:103B70005242A2E740420F00740200207D3900103B
:103B800014340020183400206D390010FFFFFF7F2F
:103B9000F0B5CE46474680B583B06B460600DD1DC6
:103BA0002870FDF72DFA00231A4A12184B41002BFA
:103BB0002BDB19490800884601F0EEFC174B8146C3
:103BC0001C68002C14D0164F02E02469002C0FD082
:103BD0002368002BF9D03B68002B01D0A342F4D11D
:103BE000200001222900FFF7C9FE2469002CEFD133
:103BF0004B46002B05D1300003B0C0BCB946B046DF
:103C0000F0BD404601F0B0FCF5E70122054B524201
:103C1000CFE7C04640420F00740200201434002059
:103C200018340020FFFFFF7F70B5040001F06CFC2A
:103C300000230100050001222000FFF72BFF084BA5
:103C40001C68002C06D06368002B05D098472469B7
:103C5000002CF8D1280070BD2469002CF3D1F9E7BD
:103C6000143400200A4A1368002B05D10CE01A0016
:103C70001B691032002B07D09842F8D1002902D1DD
:103C800003691360016170470029FCD01060FAE7F6
:103C900014340020F0B5CE46474680B5A5B00400E8
:103CA0000D00FDF7ADF900232A4A12184B41002BF5
:103CB00049DB294E300001F06FFC0023070003931D
:103CC00022002B00254803A9FFF7F0F9039B80464B
:103CD000002B14D1224B1C68002C06D06368002BEB
:103CE0000BD098472469002CF8D1002F27D14046EB
:103CF00025B0C0BCB946B046F0BD2469ECE7184B0E
:103D00001D689946002D22D0164C02E02D69002D29
:103D100011D02B68002BF9D02368002B01D09D42D5
:103D2000F4D1039B28001A0004A90193FFF726FE93
:103D30002D69002DEDD14B4603951C68CCE7300072
:103D400001F012FCD3E70122074B5242B1E7039581
:103D5000CBE7C04640420F0074020020313A001009
:103D60001434002018340020FFFFFF7F0FB400B58B
:103D700083B004A901C90191FFF78CFF03B008BC0F
:103D800004B0184710B500F0C5F8012010BDC046BA
:103D9000F0B50D1E15DD0E4B0D271A680D4B45199C
:103DA000D31859424B410C495B005E5E20210478D8
:103DB000A64207D093691942FCD101301460A84291
:103DC000F5D1F0BD93691942FCD11760F2E7C04606
:103DD000EC3700200080FCBFE837002030B504003D
:103DE0000D1E26DD002010211B4B013C1A68936933
:103DF000194219D1013093691942FCD11368235437
:103E00008542F4D1154B1B68002B0CD050239363D3
:103E1000516B183B34320B401100802252010A438F
:103E20001360002815D030BD0C4B1B68002BEDD162
:103E3000F7E70A4B1B68002B0BD050223821064BAA
:103E40001B689A635A6B343311408022520113432A
:103E5000196003204042E6E7EC370020A43300203D
:103E6000064B10B51B68002B06D00021044A1268CF
:103E70009163044A1068984710BDC046A4330020DF
:103E8000EC370020A83300201D4BF0B51A68C64659
:103E900098461C4B0E00D31859424B411A4F14330D
:103EA0001C00050000B53B68002807D0002B11D08E
:103EB000164B3D601E6080BCB846F0BD002BF7D0AD
:103EC000906300212000FCF791FB20001049FCF7D3
:103ED000D1FBEDE720000E49FCF7A2FB01212000F9
:103EE000FCF784FB4346502238211B689A635A6BC7
:103EF000343311408022520113431960D8E7C04681
:103F0000EC3700200080FCBFA4330020A833002041
:103F1000613E001010B50C4B0C4C1B780C4B022171
:103F20001B780C4B00202360FCF7D8FA02210120FB
:103F3000FCF7D4FAE12120684902FDF719FB0121C1
:103F40000548FFF78FFE10BD40590010EC370020E8
:103F50004459001000400340500200208022044BCE
:103F600052051A60BFF34F8FBFF36F8F7047C04683
:103F700004ED00E0D0231B061B6808499B005A583B
:103F8000002A08D00020585005495B58BFF35F8FC6
:103F9000106083F3108862B67047C046C8360020B0
:103FA000F8370220D02300221B065A657047C0460E
:103FB00010B50A4B1B78FF2B0CD0EFF305800028BF
:103FC00005D0D0231B061B684000C01810BD00F0B0
:103FD000FDFEFBE7D0231B061868F7E76802002008
:103FE00000B51C4A0B00127883B0FF2A29D01A4969
:103FF00002688C46022162449210FF319140090A06
:1040000040BF0068BFF35F8F0022026083F3108817
:10401000EFF30583DBB2002B05D1104B186800F0DD
:104020004DF903B000BD0D4B0192186801AA00F0D4
:104030008DF9019B002BF4D08022094B52051A60A8
:10404000EFE740BF0268BFF35F8F0021116083F389
:104050001088E6E76802002000FFFF2F0C380220DE
:1040600004ED00E0F0B51D00314B07001B780E0099
:10407000140083B0FF2B4ED0FCF7C2FF22002B00B0
:10408000121A8B4101212B484942801859410029BD
:1040900021DC1CD03B68BFF35F8F00221A6086F3DF
:1040A0001088254B5A6A95420AD98022234B520523
:1040B0001A60BFF34F8FBFF36F8F002003B0F0BDC6
:1040C0009B6A0120A342F9D29542F7D1EDE7FA238A
:1040D0009B009842DED3FA2200239200FFF796F865
:1040E000031ED7D0D0221206116815483A688900FD
:1040F0000A5014480E5014498C4602216244921012
:10410000FF319140114A090A1068009301220023EF
:1041100000F078F8C5E70368BFF35F8F00221A60EC
:1041200081F3108820002900FCF7C4FEC6E7C046D2
:104130006802002018FCFFFF0040054004ED00E08D
:10414000C8360020F837022000FFFF2F0C3802206D
:1041500010B500F04BF8014B186010BD0C38022070
:10416000F8B5DE4657464E464546E0B505000F0019
:10417000060000F083FC29682C6939430C3629605D
:10418000A6422AD0002398468023DB049B46802346
:104190005B049A4680239B0499460EE00B420AD0AA
:1041A00057463A4202D042461A4390464B4619437C
:1041B00001F0BEF82968A6420DD020005F460268D3
:1041C000646813021B0A3A42E8D01F000F40BB424A
:1041D000E6D0A642F1D143469943296001F09CF80C
:1041E000F0BCBB46B246A946A046F8BD10B51C209F
:1041F00001F02EF9041E03D0002308C000F0B0F82F
:10420000200010BDF0B5C646060000B50D00904672
:104210001F0000F033FC3468002F0AD125420CD077
:104220004346002B0CD02300AB43336001F074F8FD
:1042300008E02B0023409D42F2D0069B002B05D1C5
:1042400001F06AF8200080BCB846F0BD4346002B60
:1042500016D180210023C904002F00D11900069A2D
:104260002943301D00F08EFC01F056F800281CD0C8
:1042700001F0B6F80400830107D52402240AE1E71F
:10428000A0218023C9045B04E6E700F0F1FD346857
:10429000002F0DD12C4205D04346002B02D0230025
:1042A000AB43336001F082F8E7E700F0C7FDDFE7DA
:1042B00023002B409D42F5D1EEE7C046F8B5DE461F
:1042C00057464E464546E0B505000F00060000F093
:1042D000D5FB29682C6939430C362960A6422AD0BF
:1042E000002398468023DB049B4680235B049A4688
:1042F00080239B0499460EE019420AD057463A4261
:1043000002D042461A4390464B46194301F010F83A
:104310002968A6420DD020005F4602686468130237
:104320001B0A3A42E8D00F001F409F42E6D0A64247
:10433000F1D143469943296000F0EEFF2868F0BCB4
:10434000BB46B246A946A046F8BDC04610B513000C
:104350000A000100014801F067F810BD614100103A
:104360000300083301224360C3600361002352420B
:10437000826003607047C04643689A684B608A60F9
:104380009A6851609960036808610133036070475F
:10439000030030B50C680833621C0DD01A005B684E
:1043A0001D68A542FAD94B60996003688A600133A1
:1043B00051600861036030BD02695368F3E7C0468D
:1043C0000369416882688A6051605968814206D0F9
:1043D000002202611A68013A1A60186870475A6030
:1043E000F6E7C046F0B5C64600B5846C82B0A36B54
:1043F000E26B00260190934204D3300002B080BCEF
:10440000B846F0BD4523226CE55CA76B6DB2002A6F
:1044100016D0606801A9FFF7A3FA226C636894467E
:10442000A2686344636093420ED3236863600137DC
:10443000A7636B1C0DD0452301356DB2E554DCE755
:1044400023689846002B0FD001370026A7636B1C0A
:10445000F1D1636A002BD0D02000243000F0B6FBED
:104460000028CAD00126C8E7A06800F0BDFC43467A
:104470000600A360DBE7C046F8B54E464546DE467B
:1044800057460400E0B5884691461D00EFF31087BB
:1044900072B600F0EDFCA36BE26B934226D3022DC3
:1044A0000BD0002400F082FF87F310882000F0BCBE
:1044B000BB46B246A946A046F8BD4523E65CA36BC1
:1044C000226C9B46A36B76B29A46002A29D12368B8
:1044D0009846002B61D053460133A363731C37D039
:1044E0004523013676B2E6540124DBE74523E65C3A
:1044F000A36B226C9B46A36B76B29A46002AE6D049
:10450000002D0ED141466068FFF72AFA226C6368DD
:104510009446A268634463609342DCD3236863607B
:10452000D9E74146E068FFF71BFAE168236C5A427D
:10453000CB1A2168E3608B4203D2A3689C46624495
:10454000E2605346022D24D00133A363731CC7D10C
:10455000A36C002B13D0022D04D15B46002B01D09D
:1045600001249FE72000FFF73DFF0028F8D04B46CD
:10457000002BF5D001234A460124136092E7636AB9
:10458000002BEDD02000243000F020FB0028EED1DD
:10459000E6E7002BA1D10133D7E7A06800F024FCA7
:1045A0004346A3605346013397E7C046F0B5C6467D
:1045B000304B00B5040088461E68EFF3108172B6D8
:1045C000D0273F063B682C4D9B00EA5881F31088AA
:1045D00079230021D154EFF3108272B63B689B001F
:1045E000E85882F310880430FFF7EAFE631C30D0ED
:1045F0003419EFF3108172B6D022120613689B00B3
:10460000EB5881F310885C60A64214D81B4B1868E5
:10461000EFF3108672B613689B00E95886F3108892
:104620000431FFF7B5FE164B1A68A24200D91C6090
:1046300080BCB846F0BD134B1868EFF3108472B617
:1046400013689B00E95884F310880431FFF7A0FE3B
:10465000EEE74346002BCBD0EFF3108272B63B68F7
:104660009B00E95882F3108807480431FFF784FE65
:10467000DEE7C0464C3802203834002040340020A9
:1046800014380220443400203838022010B5EFF3EB
:10469000108C72B6D02109060B68274A9B009858E7
:1046A0008CF31088C36C013BC364EFF3108072B6C7
:1046B00009688B009B5880F31088DB6C002B36D187
:1046C0001E4A1378013BDBB21370002B08D1012086
:1046D0001B4C635C83436354BFF35F8F194B1860BB
:1046E000EFF30583DBB2002B21D1D0231B06196821
:1046F0005378013BDBB25370002B09D10220104AE2
:10470000535C83435354BFF35F8F01220E4B1A60F7
:10471000FFF730FCEFF3108272B6D0231B061B6844
:104720000A499B005B5882F31088002B00D110BD12
:10473000FFF714FCFBE7C04638340020F4370220B2
:10474000F0370220380100D03C0100D0543802205C
:10475000F8B5D0235746DE4645464E461B061B6835
:10476000584A9B00D358E0B59846574B574F9A4646
:10477000574B9B4659E04246D364D023524D1B060B
:104780001A682B78524C013BDBB22B70002B07D1FF
:104790000121A35C8B43A354BFF35F8F4D4B196082
:1047A000D0231B061A686B78013BDBB26B70002BC1
:1047B00008D10221A35C8B43A354BFF35F8F012276
:1047C000454B1A60FFF7D6FBEFF3108372B6D02388
:1047D0001B061A68404B196800294ED0BFF35F8F43
:1047E000012302216B70A35C0B43A354D0231B064F
:1047F0001A68384B1968002938D0BFF35F8F01233E
:1048000001212B70A35C0B43A354EFF3108172B60C
:10481000D022120613682B489B00C35881F31088DE
:10482000DE644B463B60002E34D043465B6B023364
:104830002AD14346DE6C3B68994600233B60002E3C
:1048400099D1D02355461B061A686B785C46013B0C
:10485000DBB26B70002BB5D10221A35C8B43A35458
:10486000BFF35F8F01221C4B1A60ABE7A15CC90745
:1048700020D419680029C0D1FBE7A15C89071DD4A9
:1048800019680029AAD1FBE7F0BCBB46B246A9468D
:10489000A046F8BD2B781268013BDBB22B70002BD1
:1048A000C3D10121A35C8B43A354BFF35F8F094B9A
:1048B0001960BAE72B7801332B70A6E76B780133C8
:1048C0006B7093E738340020F4370220043802205C
:1048D000F0370220380100D03C0100D0F0B5C646C8
:1048E000634BC26A1B68060000B59A421DD34B4257
:1048F0005941D0235F4D541A296828688C4629688D
:104900001B06496B1B68012929D901277F4268686A
:1049100069686A68526B012A0AD9012F4DD99B0038
:10492000EA58926B002A00D1EB5880BCB846F0BD23
:1049300000229446504A904642465268002A0AD1C4
:10494000C26A896B521AA24200DC0127002A02DBEC
:10495000F16A914258DC6246002AE0D1DDE746491F
:104960000F688846002FD0D16146806BC96A091A4A
:104970008C4239DA013F0029C9DB8A42C7DDEFF3F7
:104980000582D2B2002A65D0002B69D02A68526B0A
:10499000023209D00020FFF705FB02222B685242A9
:1049A0005A63D0231B061B68686869686A68526B83
:1049B000012AB4D801229446BEE7EFF30582D2B2B1
:1049C000002A13D09F4230D0BC002A59526B0232C9
:1049D000A5D03800FFF7E6FA2B59022252425A635B
:1049E000D0231B061B689AE70C00C4E7BC002A59B9
:1049F000526B023293D09F42EBD101221E4B1A51CF
:104A0000D0231B061B688AE7EFF30582D2B2002A87
:104A100013D0012B18D06A68526B023200D17EE7A6
:104A20000120FFF7BFFA6B68D7E70121124A9B000C
:104A30009950D0231B061B6871E76A68526B0232DB
:104A400000D16CE7012BEBD142465360D0231B060B
:104A50001B6864E72A68526B0232A5D0002B99D1FB
:104A6000012342461360D0231B061B689CE7C04607
:104A70000838022038340020543802203A4B70B5F0
:104A80001B68002B00D170BDEFF3108472B6D023E9
:104A9000364A1B0618681368002B45D0344BBFF309
:104AA0005F8F01210225334A5170195C2943195443
:104AB000D02531492D060E682868002E3CD0BFF362
:104AC0005F8F012101251170195C294319542B496D
:104AD0000025086801300860D020000600681570C5
:104AE00001251A5CAA431A54BFF35F8F224B1D6045
:104AF0000B68012B02D084F31088C4E7EFF3108217
:104B000072B6D0231B061B681D499B005B5882F3BD
:104B10001088DB6C002BEED1EFF30583DBB2002BAA
:104B2000E9D1FFF715FEE6E7114B195C89070AD4B6
:104B300011680029B3D1FBE71E5CF60708D40D68A5
:104B4000002DBCD1FBE70B4A517801315170AFE722
:104B50001678711C117009490868013008602868CE
:104B60001670002EC4D1BBE7343802203C0100D0BF
:104B7000F0370220F4370220380100D00438022038
:104B80003834002070B50B001400EFF3108172B6BA
:104B9000D026360632680C4D9200525981F31088A7
:104BA0008021090619439161EFF3108272B63368D0
:104BB0009B00595982F310881831FFF7DDFB012162
:104BC0002000FFF7F3FC70BD38340020C368F0B557
:104BD000DD68C6462C001834200000B5FFF7F0FB56
:104BE000744B1B68002B4BD12E1D3000FFF7E8FBE8
:104BF000714CEB6A2268934200D97DE09800C0189E
:104C00006E4B8000C0183100FFF7B6FBEA6A2368DC
:104C10009A423ED3531E9846D023694C1B06216806
:104C200020688C4621681B68496B012937D9012708
:104C3000644E7F42606861686268526B012A5DD889
:104C4000002294467268002A0BD1C26A896B521AFC
:104C5000424500DC0127002A03DBE96A8A4200DAC8
:104C600078E06246002A49D09B00E258926B002A05
:104C700000D1E258F058431E984180BCB846F0BDC0
:104C800021005148FFF778FB4B4CEA6A23689A42AF
:104C9000C0D2D0231B061B684A4E9B00EAE7494E50
:104CA0003768002F43D16146806BC96A091A88456D
:104CB00040DA013F0029BDDB8A42BBDDEFF305820C
:104CC000D2B2002A6AD0002B6ED02268526B023218
:104CD00009D00020FFF766F90222236852425A6386
:104CE000D0231B061B68606861686268526B012AEA
:104CF000BAD801229446A5E723607FE7012FB3D8F5
:104D0000EFF30582D2B2002A16D09F4233D0BD0005
:104D10006259526B0232A7D03800FFF743F963594A
:104D2000022252425A63D0231B061B689CE70127CC
:104D30007F427FE78846BDE7BD006259526B023271
:104D400000D191E79F42E7D101237351D0231B0685
:104D50001B6889E7EFF30582D2B2002A12D0012B3B
:104D600017D06268526B023200D17DE70120FFF755
:104D700019F96368D4E701229B00F250D0231B0687
:104D80001B6871E76268526B023200D16CE7012B3D
:104D9000ECD17360D0231B061B6865E72268526B59
:104DA0000232A0D0002B94D101233360D0231B0604
:104DB0001B6898E704380220083802204834002095
:104DC000383400205438022020380220EFF31082BB
:104DD00072B6D0231B061B6802499B00585882F309
:104DE000108870473834002070B5041E08D0C36D99
:104DF000C26A816D013BC3658A4201D0002B01D09C
:104E0000002070BD051D2800FFF7DAFA2022A36DEF
:104E1000D21AA261074AE36211688B4200D913607B
:104E20009800C018044B8000C0182900FFF7A4FAAE
:104E30000120E6E7083802204834002010B5EFF3DF
:104E4000108172B6D0231B061B68074A9B009A5834
:104E500081F31088D26C002A03D00121034A9950B3
:104E600010BDFFF77BF8FBE73834002054380220F0
:104E700070B5EFF3108372B63A4B1B68002B3CD031
:104E8000EFF3108C72B6D02109060B68364A9800F1
:104E900010588CF31088C06C002812D1EFF30580F5
:104EA000C0B2002832D03148314C32490D68002D53
:104EB0003ED0BFF35F8F012121700124C15C2143EB
:104EC000C154EFF3108C72B6D020000603689B002B
:104ED000D1588CF31088CB6C0133CB64264B1B6804
:104EE000002B0AD1EFF3108172B603689B00D358F0
:104EF00081F31088DB6C012B00D070BDEFF30583CC
:104F0000DBB2002BF9D1FFF723FCF6E71B4C20683E
:104F1000002818D01548BFF35F8F01210225144CDB
:104F20006170C15C2943C154D0231B061B68BCE7D8
:104F3000C55CED0703D40D68002DBAD1FBE72378DB
:104F400001332370BDE70948C55CAD0703D4216870
:104F50000029E0D1FBE7064C6378013363700B68EE
:104F6000A3E7C0463438022038340020F03702204E
:104F7000F4370220380100D0043802203C0100D070
:104F8000F0B5DE46454657464E46E0B583B00822AA
:104F900000216846FEF7DEFCFFF76AFF814B1D68C3
:104FA000002D00D0B1E0804B1F6801371F60002F3B
:104FB0005AD07E4B9B465B461B68BB426DD97C4BEF
:104FC00099467C4E3368DA6A93009B184A469B00E8
:104FD000D45873680122D96AA242A4418B005B189D
:104FE00049469B00CF58744BBA42BF411B6864428C
:104FF0007F42002B00D1ADE0704B98461B68002B20
:1050000000D0012443465B680094002B00D00127A8
:10501000D02301971B0699461B686C469A460027C9
:105020002368002B1BD0554500D191E0EFF3058399
:10503000DBB2002B00D190E04B461B689D4200D1B3
:10504000A3E0AB009B46F3585B6B023307D028000C
:10505000FEF7A8FF5B460222F35852425A6304341B
:10506000012D59D00125DBE7554B564A19681068C8
:105070001860116054490A6801320A601A6812689F
:10508000002A00D07AE0494B9B4601235A465B42F6
:1050900013605B461B68BB4291D8494B98461B681E
:1050A0001B68002B00D175E0414B9946474B9A464F
:1050B00021E0261D3000FFF783F9A36A002B03D0FF
:1050C00020001830FFF77CF95346E06A1B689842CD
:1050D00001D95346186083001818800031004844F5
:1050E000FFF74AF901212000FFF7F8FB43461B6850
:1050F0001B68002B50D043461B68DB68DC68636884
:105100009F42D6D25A4613605BE72B4A00271368AA
:1051100001331360FBF7E0F92D4B1B68002B0FD018
:10512000EFF3108272B6D0231B061B6821499B0047
:105130005B5882F31088DB6C002B01D0FFF7A6FAD6
:10514000380003B0F0BCBB46B246A946A046F0BD4D
:10515000012784E7FBF7C0F94EE7AB009B46F35805
:105160005B6B023300D17AE74B461B689D4200D04F
:105170006DE743465A460121995070E71B680B4A78
:10518000DB6893461B68136015E742460121AB00BC
:10519000D15064E7064B994601235A465B4213609F
:1051A0000FE7C046043802204C3802201438022091
:1051B00048340020383400201C38022054380220A3
:1051C00040340020443400201838022008380220DF
:1051D00034380220F8B5CE46474680B5FFF748FE82
:1051E000D02109060B683E4A99461368013B1360BB
:1051F00008683C494B78013BDBB24B70002B09D16E
:10520000022439490B5CA3430B54BFF35F8F012188
:10521000364B196013680024002B41D1344B1B68B6
:10522000002B3DD0334D2B68002B23D0324B334E17
:105230009846EB68DF6838003C1D1830FFF7C0F86F
:105240002000FFF7BDF8F86A3368984200D9306053
:1052500083001818800021004044FFF78DF82B6868
:10526000002BE6D1264B1A681268002A31D1254B53
:10527000013A1A60244B254D98461C684B469F0006
:10528000002C0AD00126FFF77BFE002800D0EE514B
:10529000013C002CF7D143461C60EC59631E9C4135
:1052A0001B4B1B68002B0FD0EFF3108272B6D0237C
:1052B0001B061B6817499B005B5882F31088DB6C48
:1052C000002B01D0FFF7E2F92000C0BCB946B04680
:1052D000F8BD1B68DB681A680A4B1A60CAE7C0464B
:1052E00004380220F4370220F03702203C0100D0BD
:1052F00000380220203802204834002008380220DC
:1053000040340020143802201C3802205438022077
:105310003438022038340020044B10B518680028B7
:1053200000D110BDFFF756FFFBE7C046343802201E
:10533000802370B51B06C4680B430360251DFFF76F
:105340003FF82800FFF73CF8144AE36A11688B42E3
:1053500000D913609800C018114B8000C0182900B4
:10536000FFF70AF8FFF784FD00212000FFF7B6FAE7
:105370000C4B1B68002B0FD0EFF3108272B6D023BA
:105380001B061B6808499B005B5882F31088DB6C86
:10539000002B01D0FFF77AF970BDC0460838022013
:1053A0004834002034380220383400200A4B10B52D
:1053B0001B68002B0FD0EFF3108272B6D0231B06B0
:1053C0001B6806499B005B5882F31088DB6C002B3E
:1053D00001D0FFF75BF910BD3438022038340020CB
:1053E00010B5EFF3108072B6D02109060B680D4A94
:1053F0009B009B5880F310889869EFF3108472B675
:105400000B689B009B5884F31088DC6AEFF31083D1
:1054100072B6096889008A5883F3108820231B1B01
:10542000936110BD3834002010B514001A00022317
:1054300084B05B420093054B019002911868694665
:1054400000230394FFF718F804B010BD5038022071
:1054500070B507250400054205D00300AB430833AF
:10546000834217D91C00FFF709FB154B1D68002D5F
:105470001DD0002C14D0134A134913681C198C42F8
:105480000ED8A3420CD2ED181460FFF745FF002D93
:105490000BD107E0FFF7F2FA094B1A68002A0BD08C
:1054A000FFF73AFFFBF716F80025280070BD07222A
:1054B000064D95431D60DCE7044AAA431A60EFE7F6
:1054C0003434002010380220F7FF0100F8370020A4
:1054D00001230121084A1360084A1360084A0800A2
:1054E00093689843FBD1074A1160802149001368F3
:1054F0000B42FCD07047C04600E0004000F0004086
:1055000000C0004000C0044010B583070AD003006B
:10551000032102E001330B4205D01A78002AF9D1A9
:10552000181A10BD030019680C4A0D4C8A188A43DA
:1055300022420FD15968094A04338A188A43224209
:1055400008D15968054A04338A188A432242F1D0A7
:1055500000E001331A78002AFBD1E1E7FFFEFEFEEE
:1055600080808080F8B5C04601B40248844601BC02
:10557000604700BF5D01002001B40248844601BCC1
:10558000604700BF7D01002001B40248844601BC91
:10559000604700BF7D01002001B40248844601BC81
:0855A000604700BFC1000020BC
:1055A8004265657020626F6F702C206C697374653A
:1055B8006E696E672E2E2E000A0A20524D53206403
:1055C800612074656E73C3A36F3A2025660A0A00CA
:1055D800486172647761726520616C61726D202523
:1055E8006420616C726561647920636C61696D65C2
:1055F800640000000A2A2A2A2050414E4943202AE2
:105608002A2A0A000A000000486172642061737344
:1056180065727400666E6900666E692B0000000092
:105628006E616E00666E692D000000007026001025
:1056380026260010262600106826001026260010B0
:1056480026260010262600102626001026260010E2
:105658002626001026260010602600102626001098
:105668005826001026260010262600105026001066
:10567800222800108226001016280010822600100A
:105688003228001082260010822600108226001080
:105698008226001082260010822600108226001022
:1056A800782600108226001082260010822600101C
:1056B8008226001082260010782600107828001014
:1056C800E2250010E2250010E2250010E225001076
:1056D800E2250010E2250010E2250010E225001066
:1056E800E2250010E2250010E2250010E225001056
:1056F800E2250010E2250010E2250010E225001046
:10570800E2250010E2250010E2250010E225001035
:10571800E2250010E2250010E2250010E225001025
:10572800E2250010E2250010E2250010E225001015
:10573800E2250010E2250010E2250010A62A00103C
:1057480044280010A62A0010E2250010E2250010C7
:10575800E2250010E2250010E2250010E2250010E5
:10576800E2250010E2250010E2250010E2250010D5
:10577800E2250010E2250010E2250010E2250010C5
:10578800E2250010E22500102A270010E22500106B
:10579800E2250010E2250010E2250010E2250010A5
:1057A800E2250010E2250010E2250010E225001095
:1057B8002A2700108C2800102A270010A62A00107B
:1057C80044280010A62A0010E22500102A270010FD
:1057D800E2250010E2250010E2250010E225001065
:1057E800E22500102A270010B6290010E225001033
:1057F800E2250010F8280010E22500102A270010E2
:10580800E2250010E22500102A2700100000000001
:10581800000000000000F03F0000000000002440ED
:1058280000000000000059400000000000408F40C8
:10583800000000000088C34000000000006AF84033
:105848000000000080842E4100000000D012634157
:105858000000000084D797410000000065CDCD41CD
:105868006D697373696E6720646F75626C65206615
:10587800756E6374696F6E0052656C65617365005F
:10588800626F6F74325F77323571303830000000E4
:10589800312E352E300000007069636F5F7700008D
:1058A8006D61696E000000004D617920323520324B
:1058B8003032330006005250BBFF3CB6A0580010EF
:1058C80006005250E182887F885800100600525026
:1058D800D3F07542805800100D0A0000554152540B
:1058E80020737464696E00005541525420737464C7
:1058F8006F7574005541525420737464696E202F7B
:10590800207374646F7574000600525053B4F4A188
:0C591800FC5800100800525092000000E3
:10592400AC020010A002001094020010BC58001039
:1059340088020010C8580010D458001010590010E4
:045944001C590010DA
:10594800F0B5C646150000B504001E000268EFF366
:10595800108872B61368002BFCD0BFF35F8F67689E
:105968007B1C0ED02368BFF35F8F00221A6088F378
:10597800108800F055F8B8420FD1002080BCB84616
:10598800F0BD00F04DF823686060BFF35F8F002220
:105998001A6088F310880120F0E700F041F807004A
:1059A80006E02A003300200000F032F80028E4D195
:1059B8002268EFF3108172B61368002BFCD0BFF396
:1059C8005F8F63680133ECD123686760BFF35F8F33
:1059D80000221A6081F310880120CFE710B5026811
:1059E800EFF3108172B61368002BFCD0BFF35F8F02
:1059F80001235B42436000F003F810BD7047C046C6
:105A080001B40248844601BC604700BFE13F001072
:105A180001B40248844601BC604700BF65400010DD
:105A280001B40248844601BC604700BFB13F001082
:105A3800100000000000000000000100000000004D
:105A4800000000000000020000000000000000004C
:105A58000000030000000000000000000000FF003C
:105A68000000000001B5486801318E4600477046C5
:105A780009380149884701BD250800101402002093
:105A88000000000098020020D4330020000000002D
:105A980000000000E43300200000000000000000C7
:105AA80010000000000000000000000000000000DE
:105AB800503300004C3300005433000052330000D0
:105AC8004D5300004D4300005334000043340000A0
